:020000040800F2
:1000000000000220D93B0008070500080905000888
:100010000B0500080D0500080F0500080000000092
:1000200000000000000000000000000011050008B2
:10003000130500080000000015050008170500085A
:10004000293C0008293C0008293C0008293C0008FC
:10005000293C0008293C0008293C0008293C0008EC
:10006000293C0008293C0008293C0008310500080B
:10007000293C0008293C0008293C0008293C0008CC
:10008000293C0008293C0008293C0008293C0008BC
:1000900021050008293C0008293C0008293C0008EB
:1000A000293C0008293C0008293C0008293C00089C
:1000B000293C0008293C0008293C0008293C00088C
:1000C000293C0008293C0008293C0008293C00087C
:1000D000293C0008293C0008293C0008293C00086C
:1000E000293C0008293C0008293C0008293C00085C
:1000F000293C0008293C0008293C0008293C00084C
:10010000293C0008293C0008293C0008293C00083B
:10011000293C0008293C0008293C0008293C00082B
:10012000293C0008293C0008293C0008293C00081B
:10013000293C0008293C0008293C0008293C00080B
:1001400041050008293C0008293C0008293C00081A
:10015000293C0008293C0008293C0008293C0008EB
:10016000293C0008293C0008293C0008293C0008DB
:10017000293C0008293C0008293C0008293C0008CB
:10018000293C0008293C0008293C0008293C0008BB
:10019000293C000800000000293C0008293C000818
:1001A000293C0008293C0008293C0008293C00089B
:1001B000293C0008293C0008293C0008293C00088B
:1001C000293C0008293C0008293C0008293C00087B
:0801D000293C0008293C00084D
:1001D8000348044B834202D0034B03B118477047CE
:1001E8008401002084010020000000000548064921
:1001F8000B1AD90F01EBA301491002D0034B03B12D
:100208001847704784010020840100200000000086
:1002180010B5064C237843B9FFF7DAFF044B13B146
:100228000448AFF300800123237010BD840100202F
:10023800000000002C3C000808B5044B1BB1044921
:100248000448AFF30080BDE80840CFE70000000095
:10025800880100202C3C000870B50D4E0D4D761B12
:10026800B61006D00024013455F8043B9847A6423E
:10027800F9D1094E094D761B03F0D4FCB61006D00F
:100288000024013455F8043B9847A642F9D170BDC3
:10029800A83C0008A83C0008AC3C0008A83C0008A2
:1002A800F0B4860746D0541E002A3CD0CAB2034692
:1002B80002E014F1FF3436D303F8012B9D07F8D17F
:1002C800032C29D9CDB245EA05250F2C45EA054569
:1002D80033D9A4F11006360903F1200707EB0617F6
:1002E80003F1100242E9045542E902551032BA42BC
:1002F800F8D1721C14F00C0F03EB021204F00F0675
:1003080013D0331F23F003030433134442F8045B70
:100318009342FBD106F003042CB1C9B21C4403F884
:10032800011B9C42FBD1F0BC704734461346002C9D
:10033800F3D1F8E714460346C2E71A462646E0E733
:1003480030B589B000240394049405940694079466
:10035800164BDA6C42F02002DA64DA6C02F0200202
:100368000092009ADA6C42F00102DA64DA6C02F068
:1003780001020192019ADA6C42F00202DA64DB6C43
:1003880003F002030293029B094D224607212846E7
:1003980000F0CCF9072303930123049305940694F2
:1003A80003A9284600F0F0F809B030BD001002405B
:1003B8000004004800B583B00E4B9A6C42F004026A
:1003C8009A649A6C02F004020092009A9A6C42F0C5
:1003D80001029A649B6C03F001030193019B0022C4
:1003E80011460B2001F00CF90B2001F03DF903B088
:1003F8005DF804FB0010024008B50848084B03608C
:1004080008234360022383600361002343618361FF
:10041800C361036201F04CF908BD00BF6C05002000
:10042800005C004010B5A8B0382200211AA8FFF7D8
:1004380037FF00241594169417941894199454228D
:1004480021466846FFF72CFF204601F041F8222399
:100458001A934FF480731D9340231E930123209316
:1004680002232193229323932A222492259306225E
:10047800269227931AA800F033FA0F231593032323
:100488001693179418941994082115A800F0E0FC05
:100498004FF4005300930F94684600F0D5FD28B040
:1004A80010BD000008B500F0B9F9FFF7BBFFFFF772
:1004B80047FFFFF77FFFFFF79FFF0F4C0122114611
:1004C800204600F033F901220221204600F02EF9DF
:1004D80003F06EF9084C00220121204600F026F9AD
:1004E800FA2000F0BDF901221146204600F01EF95D
:1004F800FA2000F0B5F9EDE70004004870477047AE
:10050800FEE7FEE7FEE7FEE770477047704708B56D
:1005180000F094F908BD000008B5024801F0B7FBE7
:1005280008BD00BF6C05002008B5024800F06EFF4A
:1005380008BD00BFEC03002008B5024800F0FCF835
:1005480008BD00BF4C04002082B00D4B1A6E42F06B
:1005580001021A661A6E02F001020092009A9A6D60
:1005680042F080529A659B6D03F080530193019B82
:10057800044A936823F48043936002B0704700BF35
:100588000010024000700040F0B482B0002236E053
:10059800052400E00024B4403C4302355F4E46F891
:1005A80025405F4C2568DC4325EA03064F6817F4AD
:1005B800803F01D043EA0506594D2E606D6804EA74
:1005C80005064F6817F4003F01D043EA0506544D6D
:1005D8006E60AD6804EA05064F6817F4801F01D005
:1005E80043EA05064E4DAE60ED682C404E6816F4A1
:1005F800001F01D043EA0504494BDC6001320B6857
:1006080033FA02F400F08680012494402340F5D0A8
:100618004D68022D01D0122D10D1D608083650F899
:1006280026C002F00705AF000F25BD402CEA050CD7
:100638000D69BD4045EA0C0540F82650D0F800C0C9
:1006480056000325B540EF432CEA050C4D6805F02C
:100658000305B54045EA0C0505604D6805F1FF3C0A
:10066800BCF1010F03D9112D01D0122D10D18568CD
:1006780007EA050CCD68B54045EA0C058560456874
:1006880025EA04044D68C5F30015954025434560E7
:10069800C46827408C68B4403C43C4604C6814F07C
:1006A800805FABD01F4C256E45F001052566246E92
:1006B80004F001040194019C9508AE1C174C54F8F1
:1006C800267002F00304A6000F24B44027EA0407AA
:1006D800B0F1904F3FF45EAF134CA04212D004F536
:1006E8008064A04210D004F58064A0420ED004F5C6
:1006F8008064A0420CD004F58064A0423FF448AF67
:10070800062448E7012446E7022444E7032442E795
:10071800042440E702B0F0BC704700BF000001406D
:100728000004014000100240000400480AB1816141
:10073800704781627047704708B50368204A934242
:1007480012D0043293421ED0043293421ED0043297
:1007580093421ED0043293421ED00432934201D0F9
:10076800022203E0012201E04FF4001215498B42F6
:1007780015D004318B4212D0134B5B6932EA030364
:1007880019D1012311E04FF48002EFE74FF0005236
:10079800ECE74FF08042E9E74FF00042E6E70A4B0A
:1007A8005B6B32EA030306D10223022B04D0064B0B
:1007B8005A61FFF7C0FF08BD034B5A63F9E700BF52
:1007C800000201401402014000040140104B1B6864
:1007D8000BB90120704710B504464FF47A70B0FB8E
:1007E800F3F30C4A1068B0FBF3F000F04BFF68B964
:1007F8000F2C01D901200AE0002221464FF0FF30DA
:1008080000F0FEFE044B1C60002000E0012010BD3B
:1008180000000020800100200400002010B5032003
:1008280000F0DCFE0020FFF7D1FF10B101242046C4
:1008380010BD0446FFF788FEF9E70000034A136875
:10084800034909680B441360704700BFE0070020A4
:1008580000000020014B1868704700BFE007002027
:1008680038B50446FFF7F6FF0546B4F1FF3F02D05E
:10087800044B1B681C44FFF7EDFF401BA042FAD352
:1008880038BD00BF00000020124AD36803F00303FC
:10089800D068C0F303100130032B11D00E4BB3FB0B
:1008A800F0F30C4AD068C0F3062000FB03F0094BB4
:1008B800DB68C3F3416301335B00B0FBF3F07047BF
:1008C800064BB3FBF0F3D068C0F3062000FB03F03F
:1008D800EDE700BF001002400024F40000127A0087
:1008E800002800F0548270B582B00446036813F003
:1008F800010F37D0B44A936803F00C03D26802F0B2
:1009080003020C2B23D0082B23D06368B3F5803F58
:100918004ED0B3F5A02F51D0AB4B1A6822F48032D9
:100928001A601A6822F480221A606368002B52D079
:10093800FFF790FF0546A44B1B6813F4003F11D145
:10094800FFF788FF401B6428F5D9032028E2032A13
:10095800D9D19D4B1B6813F4003F03D06368002B6B
:1009680000F01782236813F0020F5DD0964A93684F
:1009780003F00C03D26802F003020C2B3AD0042BCC
:100988003AD0E368002B75D08F4A136843F480731C
:100998001360FFF75FFF05468B4B1B6813F4806FEE
:1009A8005FD1FFF757FF401B0228F5D90320F7E175
:1009B800854A136843F480331360B6E703F1804334
:1009C800A3F53C331A6842F480221A601A6842F48C
:1009D80080321A60A9E7FFF73DFF05467A4B1B688E
:1009E80013F4003FBED0FFF735FF401B6428F5D94C
:1009F8000320D5E1022AC2D1734B1B6813F4806F20
:100A080003D0E368002B00F0C6816F4A536823F0D7
:100A1800FE43216943EA016353606C4B1868FFF792
:100A2800D5FE002840F0B981236813F0080F4CD098
:100A380063699BB3644AD2F8943043F00103C2F867
:100A48009430FFF707FF05465F4BD3F8943013F057
:100A5800020F3AD1FFF7FEFE401B0228F4D903200B
:100A68009EE1594A536823F0FE43216943EA016332
:100A78005360D9E7544A136823F480731360FFF76F
:100A8800E9FE0546504B1B6813F4806FCCD0FFF786
:100A9800E1FE401B0228F5D9032081E14A4AD2F839
:100AA800943023F00103C2F89430FFF7D3FE0546D3
:100AB800454BD3F8943013F0020F06D0FFF7CAFE67
:100AC800401B0228F4D903206AE1236813F0040FBD
:100AD80000F081803C4B9B6D13F0805F36D13A4B20
:100AE8009A6D42F080529A659B6D03F08053019392
:100AF800019B0125364B1B6813F4807F28D0A3681F
:100B0800012B39D0052B3FD02F4BD3F8902022F062
:100B18000102C3F89020D3F8902022F00402C3F811
:100B28009020A368002B3DD0FFF794FE0646264B85
:100B3800D3F8903013F0020F4CD1FFF78BFE801BD7
:100B480041F288339842F2D9032029E10025D1E700
:100B58001F4A136843F480731360FFF77BFE064651
:100B68001B4B1B6813F4807FC9D1FFF773FE801BF2
:100B78000228F5D9032013E1134AD2F8903043F044
:100B88000103C2F89030CCE70F4BD3F8902042F025
:100B98000402C3F89020D3F8902042F00102C3F871
:100BA8009020BEE7FFF756FE0646074BD3F8903075
:100BB80013F0020F0ED0FFF74DFE801B41F2883371
:100BC8009842F2D90320EBE0001002400400002014
:100BD80000700040E5B9236813F0200F35D0A369F1
:100BE800E3B1774AD2F8983043F00103C2F898305D
:100BF800FFF730FE0546724BD3F8983013F0020F1A
:100C080023D1FFF727FE401B0228F4D90320C7E0B1
:100C18006B4A936D23F080539365DCE7684AD2F8FA
:100C2800983023F00103C2F89830FFF713FE054609
:100C3800634BD3F8983013F0020F06D0FFF70AFE83
:100C4800401B0228F4D90320AAE0E369002B00F036
:100C5800A6805B4A926802F00C020C2A69D0022B2B
:100C68001DD0574B1A6822F080721A60DA6822F099
:100C78000302DA60DA6822F0887222F48032DA60DD
:100C8800FFF7E8FD04464E4B1B6813F0007F4ED07B
:100C9800FFF7E0FD001B0228F5D9032080E0484A51
:100CA800136823F080731360FFF7D4FD0546444BA7
:100CB8001B6813F0007F06D0FFF7CCFD401B02280D
:100CC800F5D903206CE03E4AD3683E491940236AAF
:100CD800606A013843EA0013A06A43EA0023206BE4
:100CE8004008013843EA4053606B4008013843EA42
:100CF8004063E06A43EAC0630B43D360136843F080
:100D080080731360D36843F08073D360FFF7A2FD4C
:100D180004462B4B1B6813F0007F06D1FFF79AFDA2
:100D2800001B0228F5D903203AE0002038E0002013
:100D380036E0012B36D0224BDB6803F00301226A30
:100D4800914231D103F0F002616A0139B2EB011F1F
:100D58002CD103F4FE42A16AB2EB012F28D103F093
:100D68007842E16AB2EBC16F24D103F4C001226B6F
:100D78005208013AB1EB425F1ED103F0C063626BC7
:100D88005208013AB3EB426F18D1002008E0012065
:100D98007047012004E0012002E0012000E000206B
:100DA80002B070BD0120FBE70120F9E70120F7E759
:100DB8000120F5E70120F3E70120F1E70120EFE743
:100DC800001002400C809F011E4B9B6803F00C032F
:100DD800042B32D01B4B9B6803F00C03082B2ED03E
:100DE800184B9B6803F00C030C2B01D000207047B4
:100DF800144AD36803F00303D068C0F3031001302A
:100E0800032B11D0104BB3FBF0F30E4AD068C0F39C
:100E1800062000FB03F00B4BDB68C3F3416301338F
:100E28005B00B0FBF3F07047084BB3FBF0F3D068FE
:100E3800C0F3062000FB03F0EDE7034870470348C2
:100E4800704700BF001002400024F40000127A002E
:100E5800002800F0E680F8B50C460546744B1B6880
:100E680003F00F038B420BD2714A136823F00F0370
:100E78000B431360136803F00F038B4240F0D380D9
:100E88002E6816F001065FD06B68032B15D0022B75
:100E980033D0684B1B6813F4806F00F0C680FFF7EF
:100EA80093FF654B984233D9624A936823F0F00365
:100EB80043F08003936080262BE05E4B1B6813F0A1
:100EC800007F01D101208BE0FFF7DEFC5A4B9842EE
:100ED8001AD9584B9B6813F0F00F05D02E6816F0FE
:100EE800020616D0AB688BB9524A936823F0F00318
:100EF80043F08003936080260BE04E4B1B6813F48D
:100F0800003FCCD101206BE0002602E0002600E083
:100F18000026484A936823F0030369680B439360EB
:100F2800FFF798FC0746434B9B6803F00C036A687D
:100F3800B3EB820F08D0FFF78DFCC01B41F288335A
:100F48009842F0D903204BE02B6813F0020F48D0E9
:100F580013F0040F04D0374A936843F4E0639360B6
:100F68002B6813F0080F06D0324A936823F47C5399
:100F780043F4E06393602F4A936823F0F003A96871
:100F88000B4393602A4B1B6803F00F03A34230D82E
:100F98002B6813F0040F06D0264A936823F4E06305
:100FA800E9680B4393602B6813F0080F07D0214AB8
:100FB800936823F46053296943EAC1039360FFF7F8
:100FC80003FF1C4B9B68C3F303131C4AD35C03F059
:100FD8001F03D8401A4B18601A4B1868FFF7F6FB26
:100FE800F8BD802ECED1134A936823F0F0039360A6
:100FF800C8E70F4A136823F00F0323431360FFF772
:1010080029FC06460A4B1B6803F00F03A342BFD016
:10101800FFF720FC801B41F288339842F2D9032065
:10102800DEE7012070470120DAE70120D8E700BF9A
:10103800002002400010024000B4C404983C00089C
:101048008001002004000020F0B583B00446036846
:1010580013F4002F6ED0354B9B6D13F0805F1ED1BB
:10106800324B9A6D42F080529A659B6D03F0805323
:101078000193019B01262E4A136843F48073136081
:10108800FFF7E8FB05462A4B1B6813F4807F08D15D
:10109800FFF7E0FB401B0228F5D9032502E00026F4
:1010A800E9E7002545BB214BD3F8903013F4407392
:1010B80015D0226D9A4212D01C4AD2F8903023F4EF
:1010C8004073D2F8901041F48031C2F89010D2F8F1
:1010D800901021F48031C2F89010C2F8903013F0CB
:1010E800010F10D145B9114AD2F8903023F440735A
:1010F800216D0B43C2F89030EEB10C4A936D23F08A
:101108008053936517E0FFF7A5FB0746074BD3F815
:10111800903013F0020FE5D1FFF79CFBC01B41F2A2
:1011280088339842F2D90325DCE700BF001002405B
:10113800007000400025236813F0010F08D09F4A73
:10114800D2F8883023F0030361680B43C2F8883073
:10115800236813F0020F08D0984AD2F8883023F099
:101168000C03A1680B43C2F88830236813F0040FFE
:1011780008D0924AD2F8883023F03003E1680B4354
:10118800C2F88830236813F0080F08D08B4AD2F8C9
:10119800883023F0C00321690B43C2F888302368E4
:1011A80013F0100F08D0854AD2F8883023F4407322
:1011B80061690B43C2F88830236813F0200F08D008
:1011C8007E4AD2F8883023F44063A1690B43C2F801
:1011D8008830236813F0400F08D0784AD2F8883056
:1011E80023F44053E1690B43C2F88830236813F0B5
:1011F800800F08D0714AD2F8883023F44043216A1E
:101208000B43C2F88830236813F4807F08D06B4AF8
:10121800D2F8883023F44033616A0B43C2F888302F
:10122800236813F4003F08D0644AD2F89C3023F0B6
:101238000303A16A0B43C2F89C30236813F4007FB0
:1012480008D05E4AD2F8883023F44023E16A0B4381
:10125800C2F88830236813F4806F0CD0574AD2F84C
:10126800883023F44013216B0B43C2F88830236B7A
:10127800B3F5801F79D0236813F4006F0CD04F4A60
:10128800D2F8883023F44003616B0B43C2F88830EE
:10129800636BB3F5800F6DD0236813F4805F0CD0B7
:1012A800464AD2F8883023F04073A16B0B43C2F84A
:1012B8008830A36BB3F1807F61D0236813F4005F9B
:1012C8000CD03E4AD2F8883023F04063E16B0B43E0
:1012D800C2F88830E36BB3F1006F55D0236813F47C
:1012E800804F0CD0354AD2F8883023F04063216C07
:1012F8000B43C2F88830236CB3F1006F49D02368E0
:1013080013F4004F0CD02D4AD2F8883023F0405304
:10131800616C0B43C2F88830636CB3F1805F3DD0D9
:10132800236813F4803F0CD0244AD2F8883023F085
:101338004043A16C0B43C2F88830A36CB3F1804FD3
:1013480031D0236813F4802F0CD01C4AD2F89C307B
:1013580023F44013E16C0B43C2F89C30E36CB3F503
:10136800001F25D0284603B0F0BDD36843F480138E
:10137800D36080E7D36843F48013D3608CE7D368E5
:1013880043F48013D36098E7D36843F48013D360A1
:10139800A4E7D36843F48013D360B0E7D36843F479
:1013A8008033D360BCE7D36843F48033D360C8E7A5
:1013B800D36843F48013D360D4E700BF0010024021
:1013C800104B9A6B42F480729A639A6B22F4807283
:1013D8009A6303684268134382681A43C3681343D5
:1013E800026943EA0242084B5A601A6822F4FE4234
:1013F800416942EA01221A601A6842F060021A60E2
:10140800704700BF001002400020004038B5036C50
:10141800196804682568436C03F01F0304229A4086
:101428000A4215D015F0040F12D0236813F0200FCC
:1014380003D1236823F004032360436C03F01F02E5
:10144800016C042393404B60036B03B1984738BD8C
:1014580002229A400A421CD015F0020F19D02368C4
:1014680013F0200F06D1236823F00A032360012319
:1014780080F82530436C03F01F02016C022393406F
:101488004B60002380F82430C36A002BDFD09847D4
:10149800DDE7082202FA03F30B42D8D015F0080F53
:1014A800D5D0236823F00E032360436C03F01F0399
:1014B800016C012202FA03F34B60C26380F8252015
:1014C800002380F82430436B002BC0D09847BEE738
:1014D800002836D13E4B1B6803F4C063B3F5806F18
:1014E80008D03B4AD2F8803023F48073C2F88030A9
:1014F80000207047364AD2F8803023F48073C2F84F
:101508008030136823F4C06343F400731360314BD5
:101518001A68322303FB02F32F4AA2FB03239B0C16
:10152800013300E0013B2A4A526912F4806F01D06E
:10153800002BF7D1264B5B6913F4806F44D1002050
:101548007047B0F5007F08D0214A136823F4C063C0
:1015580043F480631360002070471D4B1B6803F43D
:10156800C063B3F5806F08D0194AD2F8803043F4CD
:101578008073C2F8803000207047154AD2F8803056
:1015880043F48073C2F88030136823F4C06343F4D3
:10159800007313600F4B1A68322303FB02F30E4AE1
:1015A800A2FB03239B0C013300E0013B084A52696C
:1015B80012F4806F01D0002BF7D1054B5B6913F44F
:1015C800806F03D1002070470320704703207047C5
:1015D800007000408001002083DE1B43074AD36867
:1015E80023F4E0631B041B0C000200F4E0600343D7
:1015F80043F0BF6343F40033D360704700ED00E06D
:1016080030B4174BDB68C3F30223C3F10704042C7F
:1016180028BF04241D1D062D18D9033B4FF0FF35A4
:1016280005FA04F421EA0401994005FA03F322EAD1
:101638000303194300280BDB0901C9B200F160401C
:1016480000F5614080F8001330BC70470023E5E7DF
:1016580000F00F000901C9B2024B1954F4E700BFAA
:1016680000ED00E014ED00E0002807DB00F01F02A9
:10167800400901239340024A42F82030704700BFD6
:1016880000E100E00138B0F1807F0AD2064B5860D3
:10169800064AF02182F823100020986007221A6079
:1016A80070470120704700BF10E000E000ED00E047
:1016B80000285CD0F0B587B0044690F82932E3B131
:1016C800032384F82932206800F07EFC0023606838
:1016D800834217D204EB4312012182F8291082F8C1
:1016E8002830D386002182F82B109163D1639A1C8D
:1016F8005201A1500133DBB2E9E780F8283202F049
:1017080093F8DDE7002312E004EB4311002281F88F
:10171800292181F8283181F82B21C1F83821C1F815
:101728003C2103F10A01490162500133DBB29842BE
:10173800EAD8254655F8107B6E460FCD0FC62B68A4
:101748003360231D0ECB384600F048FC002384F894
:101758002430012384F82932E369012B02D00020C8
:1017680007B0F0BD204600F00DFC0020F8E701208E
:10177800704790F82832012B0ED010B5044601238B
:1017880080F82832006800F062FF206800F011FC41
:10179800002084F8280210BD0220704790F82832F3
:1017A800012B0DD010B50446012380F8283280F8AB
:1017B8002410006800F045FF002084F8280210BDBE
:1017C8000220704770B505460C4611F0800F21D1F4
:1017D80001F00700400100F59471294428440026CF
:1017E80080F8296104F007040C700A61CB704A780C
:1017F80002B1CC81022B18D095F82832012B17D0D2
:10180800012385F82832286800F0FEFB002085F8BF
:10181800280270BD01F00700400100F128012944A9
:101828002844012680F82960DCE700230B71E3E7F0
:101838000220EEE710B504460B4611F0800F1AD1CE
:1018480001F00702520102F594710144024400209C
:1018580082F8290103F007030B7094F82832012B52
:1018680014D0012384F82832206800F089FD002074
:1018780084F8280210BD01F00702520102F1280184
:1018880001440244012082F82900E3E70220F1E73D
:1018980070B501F00704650105F59471014405442C
:1018A800C5F83C2104F10A02560100EB42128351AB
:1018B8000023536085F8293185F8284124B9006848
:1018C80000F0E9FE002070BD006800F0E4FEF9E7D2
:1018D80001F007010A3100EB41114868704770B503
:1018E80001F00704650105F1280101440544EA6394
:1018F800A21C560100EB42128351002353600123BE
:1019080085F8293085F8284024B9006800F0C3FE1E
:10191800002070BD006800F0BEFEF9E7F8B5054686
:10192800A6E003889BB223F4E14323F070036FEA37
:1019380043436FEA53439BB203802968B1F85030A0
:1019480095F82820D20012FA83F30B44B3F8023436
:10195800C3F309036B64EA6B1344EB630021284665
:1019680001F0B0FF95F82430002B00F081802B6C3B
:10197800002B7DD195F824302A6843F08003A2F823
:101988004C30002385F8243072E0B0F8503095F8D8
:101998002821D20012FA83F30344B3F80634C3F3C0
:1019A8000903C5F84431B5F82E2105F50C7101F08D
:1019B8001BF82A68138823F070031B051B0D43F0DE
:1019C80080031380284601F06BFF51E03E2A09D8B6
:1019D800510812F0010F00D00131890289B2A3F831
:1019E8000614A4E0510912F01F0F00D101396FEA63
:1019F800C1626FEA524292B2A3F8062497E030F827
:101A080024309FB213F4004F40F0A08017F0800FED
:101A18002ED02A6832F824309BB223F4E14323F015
:101A280070036FEA43436FEA53439BB222F82430B2
:101A38002868B0F8503005EB441191F82820D200FE
:101A480012FA83F30344B3F80224C2F30902A31C75
:101A5800580105EB43135A60CB6B1A44CA632B58E1
:101A6800002B40F00A8191F82810284601F02AFF3F
:101A78002868B0F8443013F4004F00F00681B0F83D
:101A88004440A3B214F00F04B9D113F0100F3FF47F
:101A980048AF03889AB213F4006F7FF476AF12F45C
:101AA800004FE5D0038823F070031B051B0D43F09E
:101AB800800303802868B0F8503095F82821D200B8
:101AC80012FA83F30344B3F80634C3F30903C5F8E1
:101AD80044318BB1D5F83C1171B1B5F82E2100F025
:101AE80083FFD5F84421D5F83C311344C5F83C317F
:101AF8000021284601F0DCFE2B68B3F8502013FAC9
:101B080082F3D5F83821002A7FF460AFB3F80624B1
:101B180092B222F4F84292B2A3F80624B3F806244B
:101B28006FEA42426FEA524292B2A3F806242A6848
:101B380013889BB223F4804323F0700383F440534B
:101B480043F4004343F08003138091E730F82430D6
:101B580023F070031B051B0D43F0800320F824308D
:101B680005EB441393F83431CBB92868B0F85030FA
:101B780005EB441292F82821D20012FA83F30344A9
:101B8800B3F80664C6F3090686B305EB4411334679
:101B9800B1F82E21D1F83C1100F026FF26E0286884
:101BA80005EB441393F8283130F8232012F4804FC2
:101BB80045D0B0F85020DB0013FA82F30344B3F8A1
:101BC8000264C6F3090686BB2A6805EB441393F83A
:101BD800281132F821309BB223F4E04323F070033C
:101BE80043F4004343F0C00322F8213004F10A0310
:101BF800590105EB43135A6832445A6005EB441304
:101C0800D3F83C213244C3F83C216B582BB105EB87
:101C18004411D1F838118E4227D205EB441393F8BA
:101C28002811284601F044FEF0E605EB441133463E
:101C3800B1F83021D1F83C1100F0D6FEC4E7B0F875
:101C48005020DB0013FA82F30344B3F80664C6F3AA
:101C58000906002EB8D005EB44113346B1F83221FD
:101C6800D1F83C1100F0C0FEAEE705EB441191F845
:101C780028112846FFF70CFEC8E605EB441494F833
:101C880028102846FFF72BFEF2E60020F8BD10B515
:101C98000446006800F0E6FC10F4004F40F09B801A
:101CA800206800F0DFFC10F4806F40F09880206816
:101CB80000F0D8FC10F4804F08D02268B2F8443005
:101CC8009BB223F480439BB2A2F84430206800F012
:101CD800C9FC10F4005F08D02268B2F844309BB207
:101CE80023F400539BB2A2F84430206800F0BAFCF9
:101CF80010F4805F21D02268B2F840309BB223F004
:101D080004039BB2A2F840302268B2F840309BB27C
:101D180023F008039BB2A2F8403094F86032012BFC
:101D28006ED0204601F000FE2268B2F844309BB223
:101D380023F480539BB2A2F84430206800F092FC50
:101D480010F4006F63D1206800F08CFC10F0800F55
:101D58002BD02268B2F844309BB223F080039BB2A8
:101D6800A2F8443094F86032002B74D12268B2F89B
:101D780040309BB243F00403A2F840302268B2F826
:101D880040309BB243F00803A2F84030012184F8A8
:101D980060122368B3F85430C3F38D0303F03C0397
:101DA800C4F86432204600F003F9206800F05AFCB9
:101DB80010F4007F53D1206800F054FC10F4807FA9
:101DC80008D02268B2F844309BB223F480739BB2E7
:101DD800A2F8443010BD2046FFF7A0FD60E7226856
:101DE800B2F844309BB223F480639BB2A2F844302B
:101DF800204601F076FD00212046FFF7CFFC56E78C
:101E0800002184F86012204600F0D2F889E72268A1
:101E1800B2F840309BB243F00803A2F84030226881
:101E2800B2F844309BB223F400639BB2A2F844306A
:101E38002268B2F840309BB243F00403A2F8403065
:101E4800206800F00FFC10F4805F7FF47CAF204620
:101E580001F05AFD77E7204601F056FDA5E7226814
:101E6800B2F844309BB223F400739BB2A2F844301A
:101E7800204601F030FD9EE738B501F007054368BC
:101E88009D422CD8044611F0800F19D14B0103F55F
:101E9800947101440344002283F8292101238B70A3
:101EA8000D7094F82832012B1BD0012384F82832B6
:101EB800206800F050FB65B1002084F8280238BD86
:101EC8006B0103F1280101440344012283F829200E
:101ED800E4E704F50C71206800F0C8FBECE701208A
:101EE800EDE70220EBE70B4601F00F014268914253
:101EF8002CD810B5044613F0800F1CD103F007024C
:101F0800520102F5947101440244002082F829012B
:101F180000228A7003F007030B7094F82832012B13
:101F280016D0012384F82832206800F039FB0020FD
:101F380084F8280210BD03F00702520102F12801BB
:101F480001440244012082F82900E1E7012070479A
:101F58000220EFE711F0800F09D001F007014901D5
:101F68002831014442B90A73CB80002070474901E7
:101F780001F594710144F5E701220A730B811B0CEA
:101F88004B81F2E7034602680121C0F8681200207D
:101F980083F86002B2F854309BB20B43A2F8543075
:101FA800B2F854309BB243F00203A2F854307047A1
:101FB8007047B0F840309BB243F43F4343F080038E
:101FC800A0F8403000207047B0F8403023F47E532A
:101FD8005B045B0CA0F840300020704784B038B533
:101FE80005AD85E80E000123A0F840300025A0F8D3
:101FF8004050A0F84450A0F85050FFF7DAFF2846A8
:10200800BDE8384004B0704730B403460A7830F869
:102018002240A4B224F4EC4424F07004A4B2C8789A
:1020280003285BD8DFE800F04F560252002048F240
:1020380080052C4323F822400C7833F8242012B270
:1020480022F4E04222F07002224392B22A4323F89B
:1020580024200A7B002A40F0B6804A78002A4ED015
:10206800B3F8502013FA82F20C7802EBC402CC8841
:1020780064086400A2F800440C7833F8242012F0B5
:10208800400F0CD033F8242092B222F4E04222F020
:10209800700242F4004242F0C00223F82420CA78B9
:1020A800012A1DD0097833F8212092B222F4E042A7
:1020B80022F0400282F0200242F4004242F0800204
:1020C80023F8212064E044F40074B0E744F4C064C9
:1020D8000020ACE744F480640020A8E70120A6E7CC
:1020E800097833F8212092B222F4E04222F040022B
:1020F80042F4004242F0800223F8212048E0B3F87D
:10210800502013FA82F20C7802EBC402CC886408DF
:102118006400A2F80444B3F8502013FA82F20C7851
:1021280002EBC4020C69ACBBB2F80644A4B224F4B6
:10213800F844A4B2A2F80644B2F806446FEA44444C
:102148006FEA5444A4B2A2F806440C7833F8242069
:1021580012F4804F0CD033F8242092B222F4E042DB
:1021680022F0700242F4404242F0800223F8242018
:10217800097833F8212092B222F4804222F07002CA
:1021880082F4405242F4004242F0800223F82120B7
:1021980030BC70473E2C09D8650814F0010F00D0F8
:1021A8000135AD02ADB2A2F80654CEE7650914F0C8
:1021B8001F0F00D1013D6FEAC5646FEA5444A4B211
:1021C800A2F80644C1E70C7833F8242092B222F42E
:1021D800E04222F0700242F4014242F0800223F809
:1021E8002420B3F8502013FA82F20C7802EBC402D0
:1021F8000C8964086400A2F80044B3F8502013FA6C
:1022080082F20C7802EBC4024C8964086400A2F8DC
:1022180004444A78002A4ED10C7833F8242012F46A
:10222800804F0CD033F8242092B222F4E04222F0FE
:10223800700242F4404242F0800223F824200C78D5
:1022480033F8242012F0400F0CD033F8242092B237
:1022580022F4E04222F0700242F4004242F0C0024E
:1022680023F824200C7833F8242092B222F4E04298
:1022780022F0700242F4004242F0C00223F8242007
:102288000D7833F8252092B222F4804222F07002B1
:1022980082F4405248F28004224323F8252009782A
:1022A80033F8212092B222F4E04222F04002224385
:1022B80023F821206CE70C7833F8242012F4804F9F
:1022C8000CD033F8242092B222F4E04222F07002BB
:1022D80042F4404242F0800223F824200C7833F87C
:1022E800242012F0400F0CD033F8242092B222F4AC
:1022F800E04222F0700242F4004242F0C00223F8A9
:1023080024200C7833F8242092B222F4E04222F000
:10231800700242F4404242F0800223F82420CA7836
:10232800012A1ED00C7833F8242092B222F4E0421D
:1023380022F0400282F0200242F4004242F0800281
:1023480023F82420097833F8212092B222F480421D
:1023580022F0700242F4004242F0800223F8212069
:1023680016E70C7833F8242092B222F4E04222F0E7
:10237800400242F4004242F0800223F82420E1E7C0
:102388000B7B002B46D14B7813B30A7830F82230F8
:1023980013F0400F0CD030F822309BB223F4E04306
:1023A80023F0700343F4004343F0C00320F82230C5
:1023B8000A7830F822309BB223F4E04323F040033C
:1023C80043F4004343F0800320F822300020704794
:1023D8000A7830F8223013F4804F0CD030F82230CD
:1023E8009BB223F4E04323F0700343F4404343F0EB
:1023F800800320F822300A7830F822309BB223F488
:10240800804323F0700343F4004343F0800320F833
:102418002230DBE710B44B78002B4FD10A7830F824
:10242800223013F4804F0CD030F822309BB223F4C2
:10243800E04323F0700343F4404343F0800320F863
:1024480022300A7830F8223013F0400F0CD030F8E0
:1024580022309BB223F4E04323F0700343F400439B
:1024680043F0C00320F822300A7830F822309BB2BB
:1024780023F4E04323F0700343F4004343F0C00324
:1024880020F822300B7830F8232092B222F48042D0
:1024980022F0700248F28004224320F823200A78B0
:1024A80030F822309BB223F4E04323F04003234367
:1024B80020F8223000205DF8044B70470A7830F885
:1024C800223013F4804F0CD030F822309BB223F422
:1024D800E04323F0700343F4404343F0800320F8C3
:1024E80022300A7830F8223013F0400F0CD030F840
:1024F80022309BB223F4E04323F0700343F40043FB
:1025080043F0C00320F822300A7830F822309BB21A
:1025180023F4E04323F0700343F4404343F0800383
:1025280020F822300B7830F8232092B222F4E042CF
:1025380022F0400248F28004224320F823200A783F
:1025480030F822309BB223F4804323F070032343F6
:1025580020F82230AEE74B788BB10A7830F8223079
:102568009BB223F4E04323F0400383F0100343F4C9
:10257800004343F0800320F82230002070470A7897
:1025880030F822309BB223F4804323F0700383F4A5
:10259800805343F4004343F0800320F82230ECE7F3
:1025A8000B7B002B4BD14B7833B30A7830F82230B1
:1025B80013F0400F0CD030F822309BB223F4E043E4
:1025C80023F0700343F4004343F0C00320F82230A3
:1025D800CB78012B33D00A7830F822309BB223F421
:1025E800E04323F0400383F0200343F4004343F027
:1025F800800320F8223022E00A7830F8223013F4E1
:10260800804F0CD030F822309BB223F4E04323F003
:10261800700343F4404343F0800320F822300A78E3
:1026280030F822309BB223F4804323F0700383F404
:10263800405343F4004343F0800320F82230002045
:10264800704711B98023A0F84C3000207047B0F8CB
:1026580058306FEA43436FEA53439BB2A0F85830AF
:1026680000207047B0F8440080B2704700207047DF
:1026780010B45C1C6408024402F5806244B10B7813
:10268800487843EA002322F8023B0231013CF5E78F
:102698005DF8044B704770B505460C46497801292A
:1026A80037D0A26923699A4240F20A81D21AA261FC
:1026B800227B002A40F02181B5F8502015FA82F2D9
:1026C800217802EBC102002B40F0FE80B2F80634FC
:1026D8009BB223F4F8439BB2A2F80634B2F806344E
:1026E8006FEA43436FEA53439BB2A2F80634227859
:1026F80035F822309BB223F4804323F0700383F42F
:10270800405343F4004343F0800325F8223000206F
:1027180070BDA26923699A4224D9D21AA261227B88
:1027280022B3227835F8220010F0400F79D0002922
:1027380046D1B5F8501015FA81F101EBC20233BB4E
:10274800B2F8061489B221F4F84189B2A2F8061445
:10275800B2F806146FEA41416FEA514189B2A2F812
:10276800061436E00023A3611346D8E79EB2334629
:10277800E28861692846FFF77BFFB5F8503015FA03
:1027880083F3227803EBC203A3F8026438E03E2BFC
:1027980009D8590813F0010F00D00131890289B214
:1027A800A2F8061415E0590913F01F0F00D10139DA
:1027B8006FEAC1616FEA514189B2A2F8061408E0D4
:1027C800B5F8501015FA81F101EBC20299B2A2F8DE
:1027D800061462899BB261692846FFF749FF63784E
:1027E800002B5CD1227835F822309BB223F4E043E9
:1027F80023F0700343F4004343F0C00325F822306C
:10280800227835F822309BB223F4E04323F04003CA
:1028180083F0300343F4004343F0800325F822306B
:1028280075E789BBB5F8501015FA81F101EBC202C2
:102838008BB9B2F8021489B221F4F84189B2A2F82E
:102848000214B2F802146FEA41416FEA514189B2A9
:10285800A2F8021421E03E2B09D8590813F0010F01
:1028680000D00131890289B2A2F8021415E0590991
:1028780013F01F0F00D101396FEAC1616FEA5141AE
:1028880089B2A2F8021408E0B5F8501015FA81F1DF
:1028980001EBC20299B2A2F8021422899AE7012B2D
:1028A800AED1227835F822309BB223F4E04323F0EE
:1028B800700343F4404343F0800325F822309FE738
:1028C8000023A3611346F3E63E2B09D8590813F0F9
:1028D800010F00D00131890289B2A2F8061406E777
:1028E800590913F01F0F00D101396FEAC1616FEA6E
:1028F800514189B2A2F80614F9E6C1B9B5F85020D9
:1029080015FA82F2217802EBC1026BBBB2F802140D
:1029180089B221F4F84189B2A2F80214B2F802147B
:102928006FEA41416FEA514189B2A2F80214627814
:10293800002A4BD1B5F8502015FA82F2217802EB23
:10294800C10253BBB2F806349BB223F4F8439BB2DE
:10295800A2F80634B2F806346FEA43436FEA5343E9
:102968009BB2A2F80634C2E63E2B09D8590813F0E8
:10297800010F00D00131890289B2A2F80214D6E70A
:10298800590913F01F0F00D101396FEAC1616FEACD
:10299800514189B2A2F80214C9E73E2B09D8590857
:1029A80013F0010F00D00131890289B2A2F8061490
:1029B8009DE6590913F01F0F00D101396FEAC16371
:1029C8006FEA53439BB2A2F8063490E6012A7FF4DB
:1029D8008EAEB5F8502015FA82F2217802EBC102CA
:1029E8009BB2A2F8063482E610B45C08104400F5E5
:1029F800806044B130F8022B0A70C2F307224A7093
:102A08000231013CF5E713F0010F01D003880B7088
:102A18005DF8044B704710B5D0F8B842D0F8BC3216
:102A28005BB194F80002FF2807D09B6894F8012254
:102A380021469847FF2384F80032002010BD00008B
:102A4800432303800048704740000020432303804D
:102A580000487047840000204323038000487047E3
:102A6800D40000200A23038000487047C8000020D3
:102A780038B50446D0F8B85201F000F8C5F80C0291
:102A8800D4F8B8324BB1D4F8BC32DB6805F5037121
:102A9800D5F804029847002038BD0220FCE738B575
:102AA800D0F8B822D0F8C042E2B101EB810300EBC4
:102AB8008303DB693BB104EB4114A56BB3FBF5F46D
:102AC80005FB143323B10023C2F81432002038BDAB
:102AD80001EB810300EB83030022DA61134600F067
:102AE800BDFFF3E70220F2E7F0B583B006460C46D7
:102AF800D0F8B87200238DF80730ADF804300B78A1
:102B080013F0600527D0202D53D1CA88DAB113F00D
:102B1800800F0CD0D0F8BC329B6839466078984753
:102B2800E2883946304600F07EFD002544E04B78C7
:102B380087F800328B7987F80132CA88394600F065
:102B480087FD002538E0D0F8BC329B680022487821
:102B58009847002530E04F780A2F14D00B2F20D04B
:102B68001FB100F054FA022526E090F89C32032B9E
:102B780003D000F04CFA02251EE0022201A900F061
:102B880052FD3D4618E090F89C32032B03D000F02C
:102B98003EFA022510E001220DF1070100F043FD85
:102BA8000AE090F89C32032B06D000F030FA022598
:102BB80002E000F02CFA0225284603B0F0BD38B533
:102BC8000446812100F017FF0025E5620121204617
:102BD80000F011FFC4F86C518221204600F00BFF71
:102BE8002564D4F8B8324BB1D4F8BC325B68984746
:102BF800D4F8B80200F04CFFC4F8B852002038BD31
:102C080070B50446037CABBB4FF4007302228121EC
:102C180000F0E6FE0125E5624FF400730222294622
:102C2800204600F0DDFEC4F86C51082303228221FF
:102C3800204600F0D5FE012323644FF4077000F00E
:102C480023FF0546C4F8B80268B3D4F8BC321B6841
:102C580098470023C5F81432C5F81832267CCEB937
:102C68004FF40073D5F804220121204600F0FEFE3F
:102C7800304670BD40230222812100F0B1FE0125BB
:102C8800E562402302222946204600F0A9FEC4F846
:102C98006C51CAE74023D5F804220121204600F0F0
:102CA800E5FE0026E4E70126E2E719B1C0F8BC1208
:102CB8000020704702207047D0F8B832C3F80812D5
:102CC800C3F8102200207047D0F8B832C3F80412B5
:102CD80000207047D0F8B82292B108B5037C43B9F8
:102CE8004FF40073D2F80422012100F0BFFE002047
:102CF80008BD4023D2F80422012100F0B7FEF6E710
:102D08000220704798B108B50346D0F8B40210B154
:102D18000020C3F8B40209B1C3F8B012012183F846
:102D28009C121A70184600F013FE002008BD0220FD
:102D3800704719B1C0F8B4120020704702207047DC
:102D480008B500F045FE002008BD08B5D0F8B4323B
:102D58002BB11B68984700B908BD0220FCE7022088
:102D6800FAE708B5D0F8B4325B689847002008BD88
:102D780038B5044600F52A75284600F034F90123D1
:102D8800C4F89432B4F8AE32C4F8983294F8A81261
:102D980001F01F03012B0ED0022B11D02BB101F033
:102DA8008001204600F02FFE03E02946204600F06F
:102DB800C9FA002038BD2946204600F0F7FAF8E79E
:102DC8002946204600F022FBF3E738B504460D46B5
:102DD80091BB1346D0F89422032A03D0052A24D0A5
:102DE800084633E0D0F86011D0F8642191420DD93B
:102DF800891AC0F860118A4206D98AB21946204653
:102E080000F035FC284621E092B2F7E7D0F8B4325A
:102E18001B691BB190F89C22032A04D0204600F0BD
:102E28002EFC284612E09847F8E70021C0F89412D3
:102E380000F0E9FD284609E0D0F8B4329B6933B1C7
:102E480090F89C22032A04D19847002038BD02201C
:102E5800FCE70220FAE738B504460D46002953D1AD
:102E68001346D0F89422022A0CD0042A00D01AB9AA
:102E78008021204600F0C7FD94F8A032012B3ED0F7
:102E8800284638BD016A426A91421BD8C169B1FB24
:102E9800F2F302FB13132BB98A4203D8D0F8983205
:102EA80099421CD3D4F8B432DB681BB194F89C2245
:102EB800032A21D08021204600F0A5FD204600F0FD
:102EC800E9FBD9E78A1A026292B2194600F0B8FB08
:102ED80000231A461946204600F0C8FDCCE7002218
:102EE800114600F0ADFB0021C4F898120B460A46C3
:102EF800204600F0BBFDBFE720469847DAE70023ED
:102F080084F8A0322846BCE7D0F8B4325B6933B104
:102F180090F89C22032A04D198470020B1E70220A8
:102F2800AFE70220ADE770B5044640230022114602
:102F380000F056FD0125C4F858514026C4F86461D4
:102F4800334600228021204600F04AFDA5616662D2
:102F580084F89C520023C4F894326360C4F8A43205
:102F6800D4F8B8322BB1D4F8B4325B6800212046CB
:102F78009847002070BD01740020704790F89C327B
:102F880080F89D32042380F89C320020704790F826
:102F98009C32042B01D00020704790F89D3280F8B5
:102FA8009C32F8E708B590F89C32032B01D000203A
:102FB80008BDD0F8B432DB69002BF8D09847F6E7A3
:102FC800034600201A781AB10130C0B20133F9E77C
:102FD800704708B54B88012B00D008BDC0F8A43253
:102FE80000F04DFBF9E70B7803704B7843708B7852
:102FF800CA7803EB022343800B794A7903EB022357
:1030080083808B79CA7903EB0223C380704710B59C
:103018000446802100F0F7FC0021204600F0F3FC74
:1030280010BD30B583B005460C460023ADF8063018
:103038004A88130A013B062B00F2A480DFE803F05C
:1030480004182CA2A2869300D0F8B0321B680DF1A8
:103058000601007C9847BDF806201AB1E388002BCA
:1030680040F09480E388002B00F09A8003B030BDD4
:10307800037C43B9D0F8B4329B6A0DF10600984737
:1030880002234370E7E7D0F8B432DB6A0DF106009B
:10309800984702234370DEE7D2B2052A52D8DFE808
:1030A80002F003101D2A3744D0F8B0325B6823B110
:1030B8000DF10601007C9847CDE72146FFF7A7FFF1
:1030C800D4E7D0F8B0329B6823B10DF10601007C3B
:1030D8009847C0E72146FFF79AFFC7E7D0F8B03214
:1030E800DB6823B10DF10601007C9847B3E7214660
:1030F800FFF78DFFBAE7D0F8B0321B6923B10DF1A5
:103108000601007C9847A6E72146FFF780FFADE758
:10311800D0F8B0325B6923B10DF10601007C984705
:1031280099E72146FFF773FFA0E7D0F8B0329B6913
:1031380023B10DF10601007C98478CE72146FFF783
:1031480066FF93E72146FFF762FF8FE7037C33B9F9
:10315800D0F8B4325B6B0DF1060098477BE7214647
:10316800FFF755FF82E7037C43B9D0F8B4321B6BF5
:103178000DF106009847072343706CE72146FFF7D7
:1031880046FF73E72146FFF742FF6FE79A4228BFE1
:103198001A46ADF806200146284600F044FA61E7D1
:1031A800284600F06CFA61E738B504468B88F3B915
:1031B800CB88E3B94B887F2B19D803F07F0590F8AB
:1031C8009C32032B0CD080F89E52294600F03EFC1E
:1031D800204600F054FA35B1022384F89C3209E005
:1031E800FFF715FF06E0012384F89C3202E0204631
:1031F800FFF70DFF38BD000038B504460D46897845
:10320800284B197001290ED890F89C32022B0ED049
:10321800032B21D02946FFF7FAFE224B19782046C6
:10322800FFF79FFD02E02946FFF7F1FE38BD81B1A7
:103238004160032380F89C32FFF787FD022803D002
:10324800204600F01CFAF1E729462046FFF7DFFE8A
:10325800ECE700F014FAE9E789B1436899421DD018
:10326800D9B2FFF77EFD0F4B197861602046FFF752
:103278006CFD02280DD0204600F001FAD6E70223A3
:1032880080F89C324160FFF76CFD204600F0F7F9AA
:10329800CCE729462046FFF7BAFEC7E700F0EFF96A
:1032A800C4E700BFA001002008B5CB88012B0AD1D4
:1032B80090F89C32022B09D9032B09D10122011D58
:1032C80000F0B1F901E0FFF7A2FE08BD5BB213B947
:1032D800FFF79DFEF9E70146002341F8083F012268
:1032E80000F0A1F9F1E708B590F89C32013B022BF8
:1032F80012D8CB88022B0CD10123C360D0F8A4329A
:103308000BB10323C360022200F10C0100F08BF91A
:1033180008BDFFF77CFEFBE7FFF779FEF8E708B585
:1033280090F89C32013B022B09D84B88012B00D026
:1033380008BD0023C0F8A43200F0A1F9F8E7FFF7B0
:1033480066FEF5E708B50B7803F06003202B05D07F
:10335800402B03D043B1FFF75AFE03E0D0F8B43254
:103368009B689847002008BD4B78092B1BD8DFE8DD
:1033780003F011171A141A08051A0E0BFFF751FE5D
:10338800F0E7FFF711FFEDE7FFF736FFEAE7FFF792
:103398008BFFE7E7FFF7A7FFE4E7FFF71AFEE1E790
:1033A800FFF7BDFFDEE7FFF732FEDBE738B505467E
:1033B8000C460B7803F06003202B06D0402B04D07A
:1033C8001BB1FFF724FE002038BD95F89C32013B65
:1033D800022B16D82379012B0ED8D5F8B4329B6866
:1033E800214628469847E388002BECD10028EAD1EB
:1033F800284600F044F9E6E721462846FFF707FE8D
:10340800E1E721462846FFF702FEDCE770B50546EE
:103418008B880C7804F06004202C07D0DAB2402C9A
:1034280004D05CB1FFF7F3FD002405E0D5F8B43211
:103438009B68284698470024204670BD202C09D058
:103448004E78012E33D0032E0AD0002E55D0FFF728
:10345800DEFDF1E7D0F8B4329B6898470446EBE705
:1034680090F89C32022B04D0032B11D0FFF7CFFD2C
:10347800E2E70AB1802A03D12846FFF7C8FDDBE757
:10348800114600F0C0FA8021284600F0BCFAD3E7C4
:103498004B8823B91AB1802A01D0CB881BB12846A2
:1034A80000F0EDF8C8E7114600F0ADFAF7E790F83C
:1034B8009C32022B04D0032B11D0FFF7A8FDBBE7E9
:1034C8000AB1802A03D12846FFF7A1FDB4E71146C7
:1034D80000F099FA8021284600F095FAACE74B886D
:1034E800002BA9D112F07F0F03D1284600F0C7F8AE
:1034F800A2E7114600F08FFAF7E790F89C0202283D
:1035080006D0032829D02846FFF781FD344693E7E3
:103518000AB1802A13D113F0800F15D102F07F026F
:1035280002EB8202910001F5A871294404310023BD
:103538000B600222284600F076F834467CE72846DD
:10354800FFF765FD344677E702F07F0202EB82025F
:103558009100103129440431E9E75BB2002B1FDBED
:1035680002F00F0000EB800005EB8000D0F8580156
:1035780020B3002B27DB02F07F0303EB83039C00BF
:1035880004F5A8742C4404340AB1802A24D10023F9
:10359800236002222146284600F045F834464BE7CE
:1035A80002F00F0000EB800005EB80008069002826
:1035B800DFD12846FFF72BFD34463DE72846FFF7C5
:1035C80026FD344638E702F07F0303EB83039C00B3
:1035D80010342C440434D7E71146284600F023FA67
:1035E80010B101232360D4E700232360D1E7C8B1D9
:1035F80070B50D4616460446FFF7E2FC0130400060
:103608003080287003236B70022307E001345A1CB2
:10361800D2B2E8540233DBB20021A9542078002842
:10362800F4D170BD704710B513460222C0F8942239
:10363800C36103620A46002100F010FA002010BDA1
:1036480008B513460A46002100F008FA002008BD14
:1036580010B513460322C0F89422C0F85C31C0F8B4
:1036680060310A46002100F001FA002010BD08B5BB
:1036780013460A46002100F0F9F9002008BD08B5F4
:103688000423C0F8943200231A46194600F0E6F9DC
:10369800002008BD08B50523C0F8943200231A4657
:1036A800194600F0E3F9002008BD0020704700002B
:1036B800202803D0212814D0002070470B784A789E
:1036C80043EA02238A7843EA0243CA7843EA026358
:1036D8000C4A13600B7913714B7953718B79937181
:1036E800EAE7084B1A780A705A784A709A788A700A
:1036F800DA78CA701A790A715A794A719B798B718A
:10370800DAE700BF1801002008B50248FFF7E2FA1F
:10371800002008BDF417002010B5064C0022064909
:103728002046FFF7C9FA05492046FFF7CDFA0020E1
:1037380010BD00BFF4170020E80F0020E8070020A4
:1037480000B597B03422002109A8FCF7A9FD002391
:1037580002930393049305930693079320230893F6
:1037680001230E9308A8FDF7BBF8D8B90F4B9A6D43
:1037780042F480729A659B6D03F480730193019BF8
:10378800002302934FF0005303934BF67F330593C6
:10379800222306932023079302A8FDF711FE17B0F2
:1037A8005DF804FBFCF7AAFEE0E700BF001002404A
:1037B80008B5FFF7C5FF00220F491048FFF7A2FA26
:1037C80070B90F490D48FFF7B4FA60B90D490B48B5
:1037D800FFF76BFA50B90948FFF7B2FA48B908BDC4
:1037E800FCF78CFEEDE7FCF789FEEFE7FCF786FEB9
:1037F800F1E7FCF783FEF2E730010020F417002020
:103808000800002020010020022805D8DFE800F089
:1038180005040200012070470220704708B5FCF734
:1038280001FEFFF78DFF08BD30B589B00023039373
:1038380004930593069307930268174B9A4201D0A5
:1038480009B030BD154CE36C43F00103E364E36C4D
:1038580003F001030193019B4FF4C0530393022328
:103868000493002505950323069303A94FF0904080
:10387800FCF78AFEA36D43F40003A365A36D03F46C
:1038880000030293029B2A4606211420FDF7B8FE86
:103898001420FDF7E9FED3E7005C00400010024069
:1038A80008B500F50C71D0F87002FFF761FA08BD91
:1038B80008B500EB4113D3F83C21D0F87002FFF7AC
:1038C80084FA08BD08B500EB4113DA6BD0F8700232
:1038D800FFF7C1FA08BD08B5D0F87002FFF762FB20
:1038E80008BD10B504468368022B09D10121D4F81C
:1038F8007002FFF740FBD4F87002FFF714FB10BD0D
:10390800FCF7FCFDF2E7000010B50446D0F87002A1
:10391800FFF734FBA36923B1024A136943F0060396
:10392800136110BD00ED00E010B50446836923B9AA
:10393800D4F87002FFF72BFB10BD044A136923F07B
:1039480006031361FFF76AFFF2E700BF00ED00E02E
:1039580010B503461C48C0F87032C3F8C0021B4BB0
:1039680003600823436002238360036100234361EB
:103978008361C3610362FDF79BFE08BB124C1423ED
:10398800002211462046FEF7E5FA54230022802142
:103998002046FEF7DFFA9423002281212046FEF715
:1039A800D9FAD423002201212046FEF7D3FA4FF496
:1039B8008A73002282212046FEF7CCFA002010BD2F
:1039C800FCF79CFDDAE700BF6C050020005C0040B6
:1039D80008B5D0F8C002FDF7CCFEFFF715FF08BD0B
:1039E80010B514461A462346D0F8C002FDF7EAFE81
:1039F800FFF70AFF10BD08B5D0F8C002FDF71AFF9F
:103A0800FFF702FF08BD08B5D0F8C002FEF734FA88
:103A1800FFF7FAFE08BD08B5D0F8C002FEF763FA52
:103A2800FFF7F2FE08BDD0F8C03211F0800F06D1C2
:103A380001F07F0103EB411191F82A01704701F071
:103A48007F0103EB411191F82A00704708B5D0F8BF
:103A5800C002FDF7A3FEFFF7D7FE08BD08B5D0F8F2
:103A6800C002FDF73CFFFFF7CFFE08BD08B5D0F850
:103A7800C002FDF70DFFFFF7C7FE08BD08B5D0F877
:103A8800C002FDF725FF08BD00487047A4010020CB
:103A98007047000012230B80004870474C0100203B
:103AA80004230B80004870476001002000239342E4
:103AB80017D230B40BE0373401F8134000015C0032
:103AC800013400250D550133DBB2934207D2040FB0
:103AD800B0F1204FEFD2303401F81340EEE730BC9C
:103AE8007047704738B50A4B186804331C680433AC
:103AF8001B68C01800D138BD064D0822A91CFFF765
:103B0800D5FF042205F112012046FFF7CFFFF2E7A7
:103B18009075FF1F6401002008B51A230B80FFF77A
:103B2800E1FF014808BD00BF6401002008B50A464E
:103B380028B905490548FFF75AFD034808BD024959
:103B48000248FFF754FDF8E7BC1A0020443C00087F
:103B580010B50A46034C21460348FFF748FD2046A6
:103B680010BD00BFBC1A0020683C000808B50A4612
:103B780028B905490548FFF73AFD034808BD024939
:103B88000248FFF734FDF8E7BC1A00207C3C000827
:103B980008B50A4628B905490548FFF728FD03482E
:103BA80008BD02490248FFF722FDF8E7BC1A0020C9
:103BB800883C0008054BD3F8882042F47002C3F80B
:103BC80088204FF000629A60704700BF00ED00E067
:103BD8000D4885460D480E490E4A002302E0D45888
:103BE800C4500433C4188C42F9D30B4A0B4C00233D
:103BF80001E013600432A242FBD3FFF7DBFFFCF7BE
:103C08002BFBFCF74FFCFEE7000002200000002021
:103C180084010020B03C000884010020201B002003
:103C2800FEE70000F8B500BFF8BC08BC9E46704728
:0C3C3800F8B500BFF8BC08BC9E46704701
:103C440053544D3332205669727475616C20436F3E
:103C54006D506F727420696E204653204D6F6465F9
:103C64000000000053544D6963726F656C656374A2
:103C7400726F6E696373000043444320436F6E6642
:103C84006967000043444320496E7465726661634A
:103C940065000000000000000000000001020304B1
:043CA40006070809FE
:043CA80041020008CD
:043CAC0019020008F1
:103CB0000100000010000000092C0008C72B0008BC
:103CC000F12A0008000000001F2A0008A72A0008A7
:103CD000792A000800000000000000000000000039
:103CE000552A0008492A0008612A00086D2A0008A0
:103CF00009024300020100C032090400000102026F
:103D00000100052400100105240100010424020221
:103D100005240600010705820308001009040100BC
:103D2000020A0000000705010240000007058102A9
:103D30004000000009024300020100C032090400F3
:103D40000001020201000524001001052401000108
:103D5000042402020524060001070582030800105E
:103D600009040100020A0000000705010200020028
:103D700007058102000200000A0600020000004060
:103D80000100000009074300020104C032090400D9
:103D900000010202010005240010010524010001B8
:103DA000042402020524060001070582030800100E
:103DB00009040100020A000000070501024000009A
:103DC000070581024000000000C201000000080059
:103DD00021370008B3360008B9360008113700084B
:103DE0009D3A0008A93A0008593B0008353B0008F5
:103DF000213B0008753B0008993B000812010002B6
:103E00000202004083044057000201020301000047
:103E1000040309041A030000000000000000000071
:103E20000000000000000000000000000000000092
:043E30000024F40076
:0400000508003BD9DB
:00000001FF
